:020000040000fa
:080000000002040000000000f2
:020000040000fa
:04000800e002000012
:020000040000fa
:04000c00e00200000e
:020000040000fa
:04001000e00200000a
:020000040000fa
:04001400e002000006
:020000040000fa
:04001800e002000002
:020000040000fa
:04001c00e0020000fe
:020000040000fa
:04002000e0020000fa
:020000040000fa
:04002400e0020000f6
:020000040000fa
:04002800e0020000f2
:020000040000fa
:04002c00e0020000ee
:020000040000fa
:04003000e0020000ea
:020000040000fa
:04003400e0020000e6
:020000040000fa
:04003800e0020000e2
:020000040000fa
:04003c00e0020000de
:020000040000fa
:04004000e0020000da
:020000040000fa
:04004400e0020000d6
:020000040000fa
:04004800e0020000d2
:020000040000fa
:04004c00e0020000ce
:020000040000fa
:04005000e0020000ca
:020000040000fa
:04005400e0020000c6
:020000040000fa
:04005800e0020000c2
:020000040000fa
:04005c00e0020000be
:020000040000fa
:04006000e0020000ba
:020000040000fa
:04006400e0020000b6
:020000040000fa
:04006800e0020000b2
:020000040000fa
:04006c00e0020000ae
:020000040000fa
:04007000e0020000aa
:020000040000fa
:04007400e0020000a6
:020000040000fa
:04007800e0020000a2
:020000040000fa
:04007c00e00200009e
:020000040000fa
:04008000e00200009a
:020000040000fa
:04008400e002000096
:020000040000fa
:04008800e002000092
:020000040000fa
:04008c00e00200008e
:020000040000fa
:04009000e00200008a
:020000040000fa
:04009400e002000086
:020000040000fa
:04009800e002000082
:020000040000fa
:04009c00e00200007e
:020000040000fa
:0400a000e00200007a
:020000040000fa
:0400a400e002000076
:020000040000fa
:0400a800e002000072
:020000040000fa
:0400ac00e00200006e
:020000040000fa
:0400b000e00200006a
:020000040000fa
:0400b400e002000066
:020000040000fa
:0400b800e002000062
:020000040000fa
:0400bc00e00200005e
:020000040000fa
:0400c000e00200005a
:020000040000fa
:0400c400e002000056
:020000040000fa
:0400c800e002000052
:020000040000fa
:0400cc00e00200004e
:020000040000fa
:0400d000e00200004a
:020000040000fa
:0400d400e002000046
:020000040000fa
:0400d800e002000042
:020000040000fa
:0400dc00e00200003e
:020000040000fa
:0400e000e00200003a
:020000040000fa
:0400e400e002000036
:020000040000fa
:0400e800e002000032
:020000040000fa
:0400ec00e00200002e
:020000040000fa
:0400f000e00200002a
:020000040000fa
:0400f400e002000026
:020000040000fa
:0400f800e002000022
:020000040000fa
:0400fc00e00200001e
:020000040000fa
:04010000e002000019
:020000040000fa
:04010400e002000015
:020000040000fa
:04010800e002000011
:020000040000fa
:04010c00e00200000d
:020000040000fa
:04011000e002000009
:020000040000fa
:04011400e002000005
:020000040000fa
:04011800e002000001
:020000040000fa
:04011c00e0020000fd
:020000040000fa
:04012000e0020000f9
:020000040000fa
:04012400e0020000f5
:020000040000fa
:04012800e0020000f1
:020000040000fa
:04012c00e0020000ed
:020000040000fa
:04013000e0020000e9
:020000040000fa
:04013400e0020000e5
:020000040000fa
:04013800e0020000e1
:020000040000fa
:04013c00e0020000dd
:020000040000fa
:04014000e0020000d9
:020000040000fa
:04014400e0020000d5
:020000040000fa
:04014800e0020000d1
:020000040000fa
:04014c00e0020000cd
:020000040000fa
:04015000e0020000c9
:020000040000fa
:04015400e0020000c5
:020000040000fa
:04015800e0020000c1
:020000040000fa
:04015c00e0020000bd
:020000040000fa
:04016000e0020000b9
:020000040000fa
:04016400e0020000b5
:020000040000fa
:04016800e0020000b1
:020000040000fa
:04016c00e0020000ad
:020000040000fa
:04017000e0020000a9
:020000040000fa
:04017400e0020000a5
:020000040000fa
:04017800e0020000a1
:020000040000fa
:04017c00e00200009d
:020000040000fa
:04018000e002000099
:020000040000fa
:04018400e002000095
:020000040000fa
:04018800e002000091
:020000040000fa
:04018c00e00200008d
:020000040000fa
:04019000e002000089
:020000040000fa
:04019400e002000085
:020000040000fa
:04019800e002000081
:020000040000fa
:04019c00e00200007d
:020000040000fa
:0401a000e002000079
:020000040000fa
:0401a400e002000075
:020000040000fa
:0401a800e002000071
:020000040000fa
:0401ac00e00200006d
:020000040000fa
:0401b000e002000069
:020000040000fa
:0401b400e002000065
:020000040000fa
:0401b800e002000061
:020000040000fa
:0401bc00e00200005d
:020000040000fa
:0401c000e002000059
:020000040000fa
:0401c400e002000055
:020000040000fa
:0401c800e002000051
:020000040000fa
:0401cc00e00200004d
:020000040000fa
:0401d000e002000049
:020000040000fa
:0401d400e002000045
:020000040000fa
:0401d800e002000041
:020000040000fa
:0401dc00e00200003d
:020000040000fa
:0401e000e002000039
:020000040000fa
:0401e400e002000035
:020000040000fa
:0401e800e002000031
:020000040000fa
:0401ec00e00200002d
:020000040000fa
:0401f000e002000029
:020000040000fa
:0401f400e002000025
:020000040000fa
:0401f800e002000021
:020000040000fa
:0401fc00e00200001d
:020000040000fa
:04020800e002000010
:020000040000fa
:04020c00e00200000c
:020000040000fa
:04021000e002000008
:020000040000fa
:04021400e002000004
:020000040000fa
:04021800e002000000
:020000040000fa
:04021c00e0020000fc
:020000040000fa
:04022000e0020000f8
:020000040000fa
:04022400e0020000f4
:020000040000fa
:04022800e0020000f0
:020000040000fa
:04022c00e0020000ec
:020000040000fa
:04023000e0020000e8
:020000040000fa
:04023400e0020000e4
:020000040000fa
:04023800e0020000e0
:020000040000fa
:04023c00e0020000dc
:020000040000fa
:04024000e0020000d8
:020000040000fa
:04024400e0020000d4
:020000040000fa
:04024800e0020000d0
:020000040000fa
:04024c00e0020000cc
:020000040000fa
:04025000e0020000c8
:020000040000fa
:04025400e0020000c4
:020000040000fa
:04025800e0020000c0
:020000040000fa
:04025c00e0020000bc
:020000040000fa
:04026000e0020000b8
:020000040000fa
:04026400e0020000b4
:020000040000fa
:04026800e0020000b0
:020000040000fa
:04026c00e0020000ac
:020000040000fa
:04027000e0020000a8
:020000040000fa
:04027400e0020000a4
:020000040000fa
:04027800e0020000a0
:020000040000fa
:04027c00e00200009c
:020000040000fa
:04028000e002000098
:020000040000fa
:04028400e002000094
:020000040000fa
:04028800e002000090
:020000040000fa
:04028c00e00200008c
:020000040000fa
:04029000e002000088
:020000040000fa
:04029400e002000084
:020000040000fa
:04029800e002000080
:020000040000fa
:04029c00e00200007c
:020000040000fa
:0402a000e002000078
:020000040000fa
:0402a400e002000074
:020000040000fa
:0402a800e002000070
:020000040000fa
:0402ac00e00200006c
:020000040000fa
:0402b000e002000068
:020000040000fa
:0402b400e002000064
:020000040000fa
:0402b800e002000060
:020000040000fa
:0402bc00e00200005c
:020000040000fa
:0402c000e002000058
:020000040000fa
:0402c400e002000054
:020000040000fa
:0402c800e002000050
:020000040000fa
:0402cc00e00200004c
:020000040000fa
:0402d000e002000048
:020000040000fa
:0402d400e002000044
:020000040000fa
:0402d800e002000040
:020000040000fa
:0402dc00e00200003c
:020000040000fa
:0402e000e002000038
:020000040000fa
:0402e400e002000034
:020000040000fa
:0402e800e002000030
:020000040000fa
:0402ec00e00200002c
:020000040000fa
:0402f000e002000028
:020000040000fa
:0402f400e002000024
:020000040000fa
:0402f800e002000020
:020000040000fa
:0402fc00e00200001c
:020000040000fa
:04030000e002000017
:020000040000fa
:04030400e002000013
:020000040000fa
:04030800e00200000f
:020000040000fa
:04030c00e00200000b
:020000040000fa
:04031000e002000007
:020000040000fa
:04031400e002000003
:020000040000fa
:04031800e0020000ff
:020000040000fa
:04031c00e0020000fb
:020000040000fa
:04032000e0020000f7
:020000040000fa
:04032400e0020000f3
:020000040000fa
:04032800e0020000ef
:020000040000fa
:04032c00e0020000eb
:020000040000fa
:04033000e0020000e7
:020000040000fa
:04033400e0020000e3
:020000040000fa
:04033800e0020000df
:020000040000fa
:04033c00e0020000db
:020000040000fa
:04034000e0020000d7
:020000040000fa
:04034400e0020000d3
:020000040000fa
:04034800e0020000cf
:020000040000fa
:04034c00e0020000cb
:020000040000fa
:04035000e0020000c7
:020000040000fa
:04035400e0020000c3
:020000040000fa
:04035800e0020000bf
:020000040000fa
:04035c00e0020000bb
:020000040000fa
:04036000e0020000b7
:020000040000fa
:04036400e0020000b3
:020000040000fa
:04036800e0020000af
:020000040000fa
:04036c00e0020000ab
:020000040000fa
:04037000e0020000a7
:020000040000fa
:04037400e0020000a3
:020000040000fa
:04037800e00200009f
:020000040000fa
:04037c00e00200009b
:020000040000fa
:04038000e002000097
:020000040000fa
:04038400e002000093
:020000040000fa
:04038800e00200008f
:020000040000fa
:04038c00e00200008b
:020000040000fa
:04039000e002000087
:020000040000fa
:04039400e002000083
:020000040000fa
:04039800e00200007f
:020000040000fa
:04039c00e00200007b
:020000040000fa
:0403a000e002000077
:020000040000fa
:0403a400e002000073
:020000040000fa
:0403a800e00200006f
:020000040000fa
:0403ac00e00200006b
:020000040000fa
:0403b000e002000067
:020000040000fa
:0403b400e002000063
:020000040000fa
:0403b800e00200005f
:020000040000fa
:0403bc00e00200005b
:020000040000fa
:0403c000e002000057
:020000040000fa
:0403c400e002000053
:020000040000fa
:0403c800e00200004f
:020000040000fa
:0403cc00e00200004b
:020000040000fa
:0403d000e002000047
:020000040000fa
:0403d400e002000043
:020000040000fa
:0403d800e00200003f
:020000040000fa
:0403dc00e00200003b
:020000040000fa
:0403e000e002000037
:020000040000fa
:0403e400e002000033
:020000040000fa
:0403e800e00200002f
:020000040000fa
:0403ec00e00200002b
:020000040000fa
:0403f000e002000027
:020000040000fa
:0403f400e002000023
:020000040000fa
:0403f800e00200001f
:020000040000fa
:0403fc00e00200001b
:020000040000fa
:100400002f8220000e7f22000e01880000000000d5
:10041000000020000000e000020032000001200087
:10042000200288000c000700e0c620000100200028
:100430000f000700000020000000e0000200320072
:10044000000002000000000044090200000000005b
:100450000040da000000fe00200020000000e00064
:100460000200320010002000900188000000060009
:10047000a1028800800078000000eb001a0037001d
:10048000e280400054a0b4009101ba00e280400034
:1004900054a0b4009102ba00e280400054a0b4001d
:1004a0000002eb00472bde00f507b200a601880032
:1004b000602ce10008003a000049eb000201e8006e
:1004c000020039003420ec0002f0a0008301e900b2
:1004d000f9ff3e00040037006128e100010032000e
:1004e0000082eb000b00070011c3ba001101ba0033
:1004f0000604e00003003a000200e000e0ff3a00da
:1005000000000600f607b200a6028800820078000c
:10051000f5ff370004d0a300e20f49001c003900aa
:10052000810278003549ba000201e8000200390072
:100530003420ec0002f0a0008301e9000f0032003b
:100540002549ba000201e800020039003420ec001d
:1005500002f0a0008301e900080032000400e0007e
:100560000600320015c9ba000201e8000200390095
:100570003420ec0002f0a0008301e9008180e80053
:1005800054a0b4000300e000e2ff3a0000000600bf
:100590009102ba00055978008301e900f7ff3200a3
:1005a000c82ade00055978008301e900f3ff320014
:1005b0000400e000f1ff320011d9ba00eeff37006d
:0805c0000040da000000fe001b
:020000040000fa
:1005c8000600fa0010079800210798001e00900006
:1005d8008040eb00014878000111800000002800ed
:1005e800008060000000e000180032000000eb000e
:1005f800000f78001e00900011c0b3000148780079
:100608002022a800010037001e0fe8001003200078
:100618009e007800808f5000fbff34002022a90044
:1006280000000000010037000000000000118000f9
:10063800610060000000e000fbff32000010800055
:10064800800078002e009000010878000080fa00f1
:10065800000006000600fa0010079800210798001d
:100668001e0090008040eb000148780001118000d6
:1006780000002800008060000000e0001800320040
:100688000000eb00000f78001e00900011c0b300be
:10069800014878002022a800010037001e0fe8005a
:1006a800100320009e007800808f5000fbff34006c
:1006b8002022a9000000000001003700000000000f
:1006c80000118000610060000000e000fbff3200c4
:1006d80000108000800078002e009000010878004b
:1006e8000080fa00000006000400fa00881f780065
:1006f800000f7800110798001e0078008040eb007a
:100708000148780014c8bf000000fb0061006000c9
:10071800004078000004e000130032001e0078005a
:1007280011c0b300014878008e01a9009002200092
:10073800b70307009e009000800878008e01a8008b
:100748008e01a9001e009000100078004804dd000a
:1007580080022000ae030700880070001e00900091
:10076800010878008e01a8004f0478000080fa0084
:10077800000006000400fa00881f7800000f7800c7
:10078800110798001e0078008040eb0001487800af
:1007980014c8bf000000fb00620060000000e00019
:1007a800130032001e00780011c0b3000148780021
:1007b8008e01a900b0022000950307009e0090005a
:1007c800800878008e01a8008e01a9001e00900004
:1007d800100078004804dd00a00220008c03070008
:1007e800880070001e009000010878008e01a800a3
:1007f8004f0478000080fa00000006000400fa00a8
:10080800881f7800000f7800110798001e007800f4
:100818008040eb000148780014c8bf000000fb00ce
:10082800640060000000e000130032001e00780041
:1008380011c0b300014878008e01a900d002200041
:10084800730307009e009000800878008e01a800be
:100858008e01a9001e009000100078004804dd00f9
:10086800c00220006a030700880070001e00900084
:10087800010878008e01a8004f0478000080fa0073
:10088800000006000400fa00881f7800000f7800b6
:10089800110798001e0078008040eb00014878009e
:1008a80015c8bf000000fb00610060000040780030
:1008b8000004e000130032001e00780011c0b300ed
:1008c800014878008e01a90090012000500307001c
:1008d8009e009000800878008e01a8008e01a90073
:1008e8001e009000100078004804dd008001200000
:1008f80047030700880070001e0090000108780078
:100908008e01a8004f0478000080fa00000006005d
:100918000400fa00881f7800000f7800110798007b
:100928001e0078008040eb000148780015c8bf0021
:100938000000fb00620060000000e00013003200cd
:100948001e00780011c0b300014878008e01a9008c
:10095800b00120002e0307009e0090008008780058
:100968008e01a8008e01a9001e00900010007800da
:100978004804dd00a001200025030700880070005e
:100988001e009000010878008e01a8004f0478002e
:100998000080fa00000006000400fa00881f7800b2
:1009a800000f7800110798001e0078008040eb00c7
:1009b8000148780015c8bf000000fb006400600013
:1009c8000000e000130032001e00780011c0b300e0
:1009d800014878008e01a900d00120000c0307000f
:1009e8009e009000800878008e01a8008e01a90062
:1009f8001e009000100078004804dd00c0012000af
:100a080003030700880070001e00900001087800aa
:100a18008e01a8004f0478000080fa00000006004c
:100a28000400fa00881f7800000f7800110798006a
:100a38001e0078008040eb000148780016c8bf000f
:100a48000000fb0061006000004078000004e00046
:100a5800130032001e00780011c0b300014878006e
:100a68008e01a90090022000e90207009e00900074
:100a7800800878008e01a8008e01a9001e00900051
:100a8800100078004804dd0080022000e002070022
:100a9800880070001e009000010878008e01a800f0
:100aa8004f0478000080fa00000006000400fa00f5
:100ab800881f7800000f7800110798001e00780042
:100ac8008040eb000148780016c8bf000000fb001a
:100ad800620060000000e000130032001e00780091
:100ae80011c0b300014878008e01a900b0022000af
:100af800c70207009e009000800878008e01a800b9
:100b08008e01a9001e009000100078004804dd0046
:100b1800a0022000be020700880070001e0090009e
:100b2800010878008e01a8004f0478000080fa00c0
:100b3800000006000400fa00881f7800000f780003
:100b4800110798001e0078008040eb0001487800eb
:100b580016c8bf000000fb00640060000000e00051
:100b6800130032001e00780011c0b300014878005d
:100b78008e01a900d0022000a50207009e00900067
:100b8800800878008e01a8008e01a9001e00900040
:100b9800100078004804dd00c00220009c02070015
:100ba800880070001e009000010878008e01a800df
:100bb8004f0478000080fa00000006000200fa00e6
:100bc800004f78001e4078000004e00003003a005f
:100bd80021e2a9001768ef00090037001e407800dd
:100be800e14f500004003a0021e2a80010c0b30011
:100bf80017e8b7000200370000c0eb00010037001b
:100c08000040eb000080fa00000006000200fa0035
:100c1800004f78001e407800e14f50000d003a0068
:100c280031408000000e2000010070003040880034
:100c38008e01a9003040800080007800000220006a
:100c4800500207008e01a80070c0b30014e8b70076
:100c5800100037001e4078000004e0000b003a0046
:100c6800304080007f006000304088008e01a9007d
:100c78003040800080007800000220004102070018
:100c88008e01a8001468ef000200370000c0eb00d6
:100c9800010037000040eb000080fa000000060069
:100ca8000200fa00004f78001e407800e14f500023
:100cb8000d003a0001408000000e20000100700085
:100cc800004088008e01a900004080008000780064
:100cd800000120002b0207008e01a80070c0b3009d
:100ce80015e8b700100037001e4078000004e00047
:100cf8000b003a0000408000670060000040880058
:100d08008e01a900004080008000780000012000ca
:100d18001c0207008e01a8001568ef0002003700ca
:100d280000c0eb00010037000040eb000080fa0033
:100d3800000006000200fa00004f78001e4078000c
:100d4800e14f50000c003a00804080003000b300b2
:100d5800804088008e01a9008040800080007800d3
:100d680020022000070207008e01a80070c0b3000f
:100d780016e8b700110037001e4078000004e000b4
:100d88000c003a0081408000c00f20000080600005
:100d9800804088008e01a900804080008000780093
:100da80020022000f70107008e01a8001668ef0056
:100db8000200370000c0eb00010037000040eb00e4
:100dc8000080fa00000006000200fa00004f7800d8
:100dd8001e407800e34f500003003c001e4078009e
:100de8000004e00002003d0010c0b300100037000e
:100df80031408000700e2000008060003040880084
:100e08001e00fb00c300dd003040800001007000c0
:100e1800304088008e01a9003040800080007800b2
:100e280000022000d70107008e01a8000040eb0057
:100e38000080fa00000006000200fa00004f780067
:100e48001e407800e24f500003003c001e4078002e
:100e58000004e00002003d0010c0b3001500370098
:100e68001e407800e24f500002003a0030c0b30044
:100e7800004f780001408000700e20000080600064
:100e8800004088001e00fb00c300dd000040800019
:100e980001007000004088008e01a9000040800019
:100ea8008000780000012000b60107008e01a8002c
:100eb8000040eb000080fa00000006000200fa0083
:100ec800004f78001e407800e34f500003003c00bc
:100ed8001e4078000004e00002003d0010c0b3008e
:100ee80010003700f1408000f00920000080600009
:100ef800f04088001e00fb00c500dd00f0408000c7
:100f080001007000f04088008e01a900c0408000f8
:100f180080007800100220009a0107008e01a800c6
:100f28000040eb000080fa00000006000200fa0012
:100f3800000f78009e007800014088008e01a9000b
:100f48000040800080007800000120008d0107002b
:100f58008e01a8000080fa00000006000200fa00d6
:100f6800000f78009e007800c14088008e01a9001b
:100f7800c040800080007800100120008101070037
:100f88008e01a8000080fa00000006000200fa00a6
:100f9800000f78009e007800d14088008e01a900db
:100fa800d0408000800078002001200075010700f3
:100fb8008e01a8000080fa00000006000200fa0076
:100fc800000f78009e007800114088008e01a9006b
:100fd8001040800080007800e001200069010700cf
:100fe8008e01a8000080fa00000006000200fa0046
:100ff800000f78009e007800214088008e01a9002b
:101008002040800080007800f00120005d0107008a
:101018008e01a8000080fa00000006000200fa0015
:10102800000f78009e007800314088008e01a900ea
:101038003040800080007800000220005101070045
:101048008e01a8000080fa00000006000200fa00e5
:10105800000f78009e007800414088008e01a900aa
:101068004040800080007800100220004501070001
:101078008e01a8000080fa00000006000200fa00b5
:10108800000f78009e007800514088008e01a9006a
:1010980050408000800078002002200039010700bd
:1010a8008e01a8000080fa00000006000200fa0085
:1010b800000f78009e007800614088008e01a9002a
:1010c8006040800080007800300220002d01070079
:1010d8008e01a8000080fa00000006000200fa0055
:1010e800000f78009e007800e14088008e01a9007a
:1010f800e0408000800078004002200021010700c5
:101108008e01a8000080fa00000006000200fa0024
:10111800000f78009e007800714088008e01a900b9
:101128007040800080007800000220001501070050
:101138008e01a8000080fa00000006000200fa00f4
:10114800000f78009e007800f14088008e01a90009
:10115800f04080008000780010022000090107009c
:101168008e01a8000080fa00000006000200fa00c4
:10117800000f78009e007800814088008e01a90049
:10118800804080008000780020022000fd000700d9
:101198008e01a8000080fa00000006000200fa0094
:1011a800000f78009e007800914088008e01a90009
:1011b800904080008000780030022000f100070095
:1011c8008e01a8000080fa00000006000200fa0064
:1011d800000f78009e007800014188008e01a90068
:1011e800004180008000780040022000e5000700f0
:1011f8008e01a8000080fa00000006000000fa0036
:10120800000c200049ff07000000eb0053ff070017
:101218000000eb005dff07008003200067ff070068
:101228008003200071ff0700000d20007bff0700ee
:101238000006200085ff0700400020008fff070000
:101248004000200099ff07000000eb00a3ff070003
:10125800e0072000adff07000000eb00b7ff070024
:1012680040082000c1ff0700c0002000cbff070096
:101278000000eb00d5ff07000080fa000000060020
:101288001a00fa000080eb00000c88000080eb00d8
:10129800500c88008421ef008e21ef001f01070009
:1012a80059010700000107008d00070010c0b300b6
:1012b80042fe070010c0b30054fe070010c0b30080
:1012c80077fe070010c0b3009afe0700cbff0700a7
:1012d80020c0b300bcfe07000040eb00d6fe0700ac
:1012e8000040eb00f5fe0700f600470078004700d5
:1012f800b3fc0700be089000010f78003e0890007c
:1013080033000700f600470078004700d1fc0700cb
:10131800be08900011079800f600470078004700c3
:10132800f1fc0700be08900021079800f60047006e
:10133800780047000ffd0700be08900031079800ad
:10134800f6004700780047002cfd0700be08900013
:1013580041079800f60047007800470049fd07005c
:10136800be08900051079800f60047007800470033
:1013780067fd0700be08900061079800f600470067
:101388007800470084fd0700be08900071079800a8
:10139800f600470078004700a1fd0700be0890004e
:1013a800010f9800f600470078004700bffd0700ce
:1013b800be089000110f9800f6004700780047001b
:1013c800dcfd0700be089000210f9800c6ff37001b
:1013d8000200fa00000f78009e007800618060002b
:1013e800004078000004e000030032008e21ef0086
:1013f8008e21a8008e01a8009e00780062806000ff
:101408000000e000030032008e21ef008e21a800ca
:101418008e01a8009e007800648060000000e00053
:10142800030032008e21ef008e21a8008e01a80053
:101438009e007800688060000000e0000300320031
:101448008e21ef008e21a8008e01a8009e00780052
:10145800708060000000e000030032008e21ef0081
:101468008e21a8008e01a800000220001e00600046
:101478000000e000030032008e21ef008e21a8005a
:101488008e01a800000420001e0060000000e0009b
:10149800030032008e21ef008e21a8008e01a800e3
:1014a800000820001e0060000000e0000300320079
:1014b8008e21ef008e21a8008e01a80000102000c8
:1014c8001e0060000000e000030032008e21ef00e3
:1014d8008e21a8008e01a8000080fa0000000600f6
:1014e8000200fa00400580000040a0000050a10062
:1014f8000060a000400588008520a9008540a9005b
:101508008b40a9009520a9009540a9009b40a900ff
:1015180001e3a90060188000000f78000003a9000b
:1015280008c3a90000a3a8000080eb008018880069
:101538000018800000a0a10000b0a10000188800d9
:101548000183a9000083a9000063a90000c3a800c3
:101558000103a9000123a90003e3a90003a3a8002c
:101568000383a8000283a9002118800000fe2f0031
:10157800008060002018880001e3a8000080fa00bd
:10158800000006000600fa001007980021079800de
:101598001e009000601888000000000040188000bd
:1015a800620060000000e000fcff3a00000000005c
:1015b8004118800000022000008060000000e00068
:1015c800fbff3a0060188000000f78002e009000a2
:1015d8006018880000000000401880006200600069
:1015e8000000e000fcff3a00000000004118800005
:1015f80000022000008060000000e000fbff3a00cd
:1016080060188000000f78000080fa0000000600d3
:101618000600fa0020079800ae009000000820009d
:1016280001007000200798002e00900060188800c4
:101638000000000040188000620060000000e00028
:10164800fcff3a0000000000411880000002200062
:10165800008060000000e000fbff3a006018800096
:10166800000f78000c23ef000000000040188000f5
:10167800620060000000e000fcff3a00000000008b
:101688004118800000022000008060000000e00097
:10169800fbff3a0060188000100798001e009000b9
:1016a8000080fa00000006000000fa006004200034
:1016b80000088800700520000008880000c1a90003
:1016c800a11d800000fc2f00008060000000a00029
:1016d800a01d8800c11e800000fc2f000080600053
:1016e8007000b300c01e8800c11e8000f00f2c00df
:1016f800808060000080200001007000c01e88000b
:101708006004200000088800700520000008880098
:1017180000c1a8000080fa00000006000000fa00de
:101728008a21ef008e21ef00100880000080a100c0
:101738000090a10000a0a1001008880082072000e6
:1017480080072000a109200013102000804978009c
:101758008149780082497800a2092000800720008a
:10176800a1092000131020008049780081497800e1
:10177800824978001200200080072000a10920007b
:101788001310200080497800814978008249780048
:10179800620420006004200071052000031020006e
:1017a80080497800814978008249780072052000d4
:1017b8006004200071052000031020008049780093
:1017c80081497800824978001200200060042000d6
:1017d80071052000031020008049780081497800b5
:1017e8008249780000000000010037000000000076
:1017f80000088000610060000000e000fbff3a0084
:101808000080fa00000006000000fa0021e2a900aa
:101818008ba1a80093a1a8001011800000e0a100ee
:1018280000f0a1001011880023a2a9004011800037
:1018380000d0a10000e0a10000f0a1004011880044
:1018480041118000f00f2e008080600000702000a1
:101858000100700040118800401180000050a10074
:101868000060a1000070a1004011880041118000b3
:1018780000fe2f00008060007000b3004011880057
:1018880025e2a90010c0b30024e2b70000118000cf
:101898000040a1000050a1000060a1000070a1005c
:1018a800001188002042a90000082000601188006b
:1018b8002a22ef003022ef00001180000080a000f3
:1018c8000090a1000011880021e2a8000080fa0021
:0418d8000000060006
:020000040000fa
:1018dc00140800000e00000080000000000800004a
:1018ec001400000082000000c00038000038000026
:1018fc00d00060000004000004007e0000840000a2
:08190c000c0000008a0c8000b1
:020000040000fa
:0419140000000000cf
:020000040000fa
:020000040002f8
:04aff0003f7e0000a0
:020000040000fa
:020000040002f8
:04aff400ffe6000074
:020000040000fa
:020000040002f8
:04aff800bfb10000e5
:020000040000fa
:020000040002f8
:04affc003f3f0000d3
:00000001FF
